{
  "_format": "hh-sol-artifact-1",
  "contractName": "NodeStaking",
  "sourceName": "contracts/NodeStaking.sol",
  "abi": [
    {
      "inputs": [
        {
          "internalType": "address",
          "name": "initialOwner",
          "type": "address"
        }
      ],
      "stateMutability": "nonpayable",
      "type": "constructor"
    },
    {
      "inputs": [
        {
          "internalType": "address",
          "name": "owner",
          "type": "address"
        }
      ],
      "name": "OwnableInvalidOwner",
      "type": "error"
    },
    {
      "inputs": [
        {
          "internalType": "address",
          "name": "account",
          "type": "address"
        }
      ],
      "name": "OwnableUnauthorizedAccount",
      "type": "error"
    },
    {
      "inputs": [],
      "name": "ReentrancyGuardReentrantCall",
      "type": "error"
    },
    {
      "anonymous": false,
      "inputs": [
        {
          "indexed": true,
          "internalType": "address",
          "name": "node",
          "type": "address"
        },
        {
          "indexed": true,
          "internalType": "address",
          "name": "admin",
          "type": "address"
        },
        {
          "indexed": false,
          "internalType": "uint256",
          "name": "timestamp",
          "type": "uint256"
        }
      ],
      "name": "NodeSlashed",
      "type": "event"
    },
    {
      "anonymous": false,
      "inputs": [
        {
          "indexed": true,
          "internalType": "address",
          "name": "node",
          "type": "address"
        },
        {
          "indexed": false,
          "internalType": "uint256",
          "name": "timestamp",
          "type": "uint256"
        }
      ],
      "name": "NodeStaked",
      "type": "event"
    },
    {
      "anonymous": false,
      "inputs": [
        {
          "indexed": true,
          "internalType": "address",
          "name": "node",
          "type": "address"
        },
        {
          "indexed": false,
          "internalType": "uint256",
          "name": "timestamp",
          "type": "uint256"
        }
      ],
      "name": "NodeUnstaked",
      "type": "event"
    },
    {
      "anonymous": false,
      "inputs": [
        {
          "indexed": true,
          "internalType": "address",
          "name": "previousOwner",
          "type": "address"
        },
        {
          "indexed": true,
          "internalType": "address",
          "name": "newOwner",
          "type": "address"
        }
      ],
      "name": "OwnershipTransferred",
      "type": "event"
    },
    {
      "inputs": [],
      "name": "STAKE_AMOUNT",
      "outputs": [
        {
          "internalType": "uint256",
          "name": "",
          "type": "uint256"
        }
      ],
      "stateMutability": "view",
      "type": "function"
    },
    {
      "inputs": [
        {
          "internalType": "address",
          "name": "node",
          "type": "address"
        }
      ],
      "name": "isNodeActive",
      "outputs": [
        {
          "internalType": "bool",
          "name": "",
          "type": "bool"
        }
      ],
      "stateMutability": "view",
      "type": "function"
    },
    {
      "inputs": [
        {
          "internalType": "address",
          "name": "",
          "type": "address"
        }
      ],
      "name": "isSlashed",
      "outputs": [
        {
          "internalType": "bool",
          "name": "",
          "type": "bool"
        }
      ],
      "stateMutability": "view",
      "type": "function"
    },
    {
      "inputs": [],
      "name": "owner",
      "outputs": [
        {
          "internalType": "address",
          "name": "",
          "type": "address"
        }
      ],
      "stateMutability": "view",
      "type": "function"
    },
    {
      "inputs": [],
      "name": "renounceOwnership",
      "outputs": [],
      "stateMutability": "nonpayable",
      "type": "function"
    },
    {
      "inputs": [
        {
          "internalType": "address",
          "name": "node",
          "type": "address"
        }
      ],
      "name": "slashNode",
      "outputs": [],
      "stateMutability": "nonpayable",
      "type": "function"
    },
    {
      "inputs": [],
      "name": "stake",
      "outputs": [],
      "stateMutability": "payable",
      "type": "function"
    },
    {
      "inputs": [],
      "name": "totalStaked",
      "outputs": [
        {
          "internalType": "uint256",
          "name": "",
          "type": "uint256"
        }
      ],
      "stateMutability": "view",
      "type": "function"
    },
    {
      "inputs": [
        {
          "internalType": "address",
          "name": "newOwner",
          "type": "address"
        }
      ],
      "name": "transferOwnership",
      "outputs": [],
      "stateMutability": "nonpayable",
      "type": "function"
    },
    {
      "inputs": [],
      "name": "unstake",
      "outputs": [],
      "stateMutability": "nonpayable",
      "type": "function"
    }
  ],
  "bytecode": "0x608060405234801561001057600080fd5b506040516109ed3803806109ed83398101604081905261002f916100e2565b8060017f9b779b17422d0df92223018b32b4d1fa46e071723d6817e2486d003becc55f00556001600160a01b03811661008257604051631e4fbdf760e01b81526000600482015260240160405180910390fd5b61008b81610092565b5050610112565b600080546001600160a01b038381166001600160a01b0319831681178455604051919092169283917f8be0079c531659141344cd1fd0a4f28419497f9722a3daafe3b4186f6b6457e09190a35050565b6000602082840312156100f457600080fd5b81516001600160a01b038116811461010b57600080fd5b9392505050565b6108cc806101216000396000f3fe6080604052600436106100915760003560e01c80638da5cb5b116100595780638da5cb5b146101135780639407af1f1461013b578063b799036c1461016b578063f2fde38b1461019b578063faf5625f146101bb57600080fd5b80632def6620146100965780633a4b66f1146100ad5780635dca14f1146100b5578063715018a6146100d5578063817b1cd2146100ea575b600080fd5b3480156100a257600080fd5b506100ab6101d7565b005b6100ab610366565b3480156100c157600080fd5b506100ab6100d036600461080a565b6104ec565b3480156100e157600080fd5b506100ab6106ad565b3480156100f657600080fd5b5061010060035481565b6040519081526020015b60405180910390f35b34801561011f57600080fd5b506000546040516001600160a01b03909116815260200161010a565b34801561014757600080fd5b5061015b61015636600461080a565b6106bf565b604051901515815260200161010a565b34801561017757600080fd5b5061015b61018636600461080a565b60026020526000908152604090205460ff1681565b3480156101a757600080fd5b506100ab6101b636600461080a565b610706565b3480156101c757600080fd5b50610100670de0b6b3a764000081565b6101df610741565b3360009081526001602052604090205460ff16801561020e57503360009081526002602052604090205460ff16155b6102515760405162461bcd60e51b815260206004820152600f60248201526e4e6f7420616374697665206e6f646560881b60448201526064015b60405180910390fd5b336000908152600160205260408120805460ff1916905560038054670de0b6b3a76400009290610282908490610850565b90915550506040516000903390670de0b6b3a7640000908381818185875af1925050503d80600081146102d1576040519150601f19603f3d011682016040523d82523d6000602084013e6102d6565b606091505b50509050806103175760405162461bcd60e51b815260206004820152600d60248201526c1499599d5b990819985a5b1959609a1b6044820152606401610248565b60405142815233907f67722cd735ac17faf7e2ff2d57ac864a5a1f41405ee9113c16a413344ce31fbf9060200160405180910390a250610364600160008051602061087783398151915255565b565b61036e610741565b670de0b6b3a764000034146103c55760405162461bcd60e51b815260206004820152601a60248201527f4d757374207374616b652065786163746c792031204d415449430000000000006044820152606401610248565b3360009081526001602052604090205460ff16156104165760405162461bcd60e51b815260206004820152600e60248201526d105b1c9958591e481cdd185ad95960921b6044820152606401610248565b3360009081526002602052604090205460ff16156104655760405162461bcd60e51b815260206004820152600c60248201526b139bd919481cdb185cda195960a21b6044820152606401610248565b3360009081526001602081905260408220805460ff1916909117905560038054670de0b6b3a7640000929061049b908490610863565b909155505060405142815233907ff02b9c90d1a12278c9244be1ddc794b15f8a3b9d50cf085ad7711683c0f9a0909060200160405180910390a2610364600160008051602061087783398151915255565b6104f461075d565b6104fc610741565b6001600160a01b03811660009081526001602052604090205460ff166105515760405162461bcd60e51b815260206004820152600a6024820152694e6f742061637469766560b01b6044820152606401610248565b6001600160a01b0381166000908152600160208181526040808420805460ff19908116909155600290925283208054909116909117905560038054670de0b6b3a764000092906105a2908490610850565b9091555050600080546040516001600160a01b0390911690670de0b6b3a7640000908381818185875af1925050503d80600081146105fc576040519150601f19603f3d011682016040523d82523d6000602084013e610601565b606091505b50509050806106525760405162461bcd60e51b815260206004820152601860248201527f50726f746f636f6c207472616e73666572206661696c656400000000000000006044820152606401610248565b60405142815233906001600160a01b038416907f94c1cb5a30eb84463733f8aa89d572686b6f043379602056dd68dc711c674c479060200160405180910390a3506106aa600160008051602061087783398151915255565b50565b6106b561075d565b610364600061078a565b6001600160a01b03811660009081526001602052604081205460ff16801561070057506001600160a01b03821660009081526002602052604090205460ff16155b92915050565b61070e61075d565b6001600160a01b03811661073857604051631e4fbdf760e01b815260006004820152602401610248565b6106aa8161078a565b6107496107da565b600260008051602061087783398151915255565b6000546001600160a01b031633146103645760405163118cdaa760e01b8152336004820152602401610248565b600080546001600160a01b038381166001600160a01b0319831681178455604051919092169283917f8be0079c531659141344cd1fd0a4f28419497f9722a3daafe3b4186f6b6457e09190a35050565b6000805160206108778339815191525460020361036457604051633ee5aeb560e01b815260040160405180910390fd5b60006020828403121561081c57600080fd5b81356001600160a01b038116811461083357600080fd5b9392505050565b634e487b7160e01b600052601160045260246000fd5b818103818111156107005761070061083a565b808201808211156107005761070061083a56fe9b779b17422d0df92223018b32b4d1fa46e071723d6817e2486d003becc55f00a26469706673582212205121ae3e531e2338af28e4ce36c95b4ab2313bd81588e5736926040991f6755564736f6c63430008140033",
  "linkReferences": {},
  "deployedLinkReferences": {}
}